:020000040000FA
:020000000528D1
:040002000034003492
:080008003F28A2010230A10013
:10001000A00183160313860183120313860183163E
:1000200003133030810083120313003081008312E8
:10003000031300308F0000308E0083120313313021
:100040009000831603130C14C0308B00272822085D
:1000500083120313860027288312031300308F00B6
:1000600000308E0083120313A10B0800A20183123B
:1000700003130108A20081010230A10008008312CD
:1000800003130C1C09002C20831203130C1009000D
:02400E00F73F7A
:02401000FF3F70
:00000001FF
