:020000040000FA
:020000000528D1
:040002000034003492
:080008001F29831203134A3083
:10001000A7000130A800F630A9000030AA00C430C3
:10002000AB000030AC009230AD000030AE006E305E
:10003000AF000030B0005230B1000030B200831683
:1000400003130514851583160317881583120317E8
:1000500087178316031320308D0083120313023099
:10006000A400A201A301A501A6011030A100A001D6
:100070008316031388018312031383120313FF30C3
:10008000C00083160313FF3086008316031789010F
:10009000831203130B308F00DC308E0083120313A6
:1000A00011309000831603130C14C0308B005828B5
:1000B0005E208C20B520BB20BD205828831203135E
:1000C00006186D28861872280619772886197C2844
:1000D000061A8128061B86288B282708D0002808A6
:1000E000D1008B282908D0002A08D1008B282B08A2
:1000F000D0002C08D1008B282D08D0002E08D1006C
:100100008B282F08D0003008D1008B283108D00070
:100110003208D1008B280800A001D4012508500224
:1001200003195416031C5415D200541998289A2800
:10013000D209D20A260851020319D416031CD41579
:10014000D300D419A428A828D309D30AD209D20AE3
:10015000541AB220D419D4145419AF200800D41A58
:10016000D4140800D41A54140800D5015208D5003C
:10017000D418D51708000000080083120313C52007
:100180005608831203138800080083120313D70153
:10019000D6015508D7007F30D7050319ED28D51BA8
:1001A000D328E028EF2815305702031C56152A30B3
:1001B0005702031CD6143F305702031C5614EF2875
:1001C00015305702031C56162A305702031CD61648
:1001D0003F305702031C5617EF28D615EF280800AA
:1001E000831203130B308F00DC308E008312031355
:1001F000A10B0800831203132208A500A201230803
:10020000A600A3011030A100080083120313A20A64
:10021000031D0800A30AA2010800831203138D1E08
:10022000090083120313A40B1B298312031302304A
:10023000A40005211B29831203138D120900C2009B
:10024000030EC101C100831203130C1C0D29F02001
:10025000831203130C10410E8300C20E420E0900DC
:02400E00F62F8B
:02401000FF3F70
:00000001FF
