:020000040000FA
:020000000528D1
:040002000034003492
:08000800EB28831203134A30B8
:10001000A7000130A800F630A9000030AA00C430C3
:10002000AB000030AC009230AD000030AE006E305E
:10003000AF000030B0005230B1000030B200831683
:1000400003130514851583160317881583120317E8
:1000500087178316031320308D0083120313023099
:10006000A400A201A301A501A6011030A100A001D6
:100070008316031386018801831203138601880106
:1000800083120313FF30C00083160313FF30870071
:10009000831203130B308F00DC308E0083120313A6
:1000A00011309000831603130C14E0308B00582895
:1000B0005D208B20AB20B72058288312031307182C
:1000C0006C28871871280719762887197B28071A42
:1000D0008028071B85288A282708D0002808D100F7
:1000E0008A282908D0002A08D1008A282B08D000A5
:1000F0002C08D1008A282D08D0002E08D1008A288B
:100100002F08D0003008D1008A283108D0003208EA
:10011000D1008A280800A001D40125085002031943
:100120005416031C5415D2005419982852089A28C2
:10013000D209D20A260851020319D416031CD41579
:10014000D300D419A5285308A728D309D30A541AD1
:10015000D41A54140800D418AE200800D309D209C8
:100160005208013ED200031C0800D30A0800831283
:100170000313200886000800831203130B308F003E
:10018000DC308E0083120313A10B080083120313CB
:100190002208A500A2012308A600A3011030A10097
:1001A000080083120313A20A031D0800A30AA20178
:1001B0000800831203138D1E090083120313A40B7E
:1001C000E728831203130230A400D120E72883120A
:1001D00003138D120900C200030EC101C100831276
:1001E00003130C1CD928BC20831203130C10410EDE
:0801F0008300C20E420E09005B
:02400E00F62F8B
:02401000FF3F70
:00000001FF
