:020000040000FA
:020000000528D1
:040002000034003492
:080008002629831203134A307C
:10001000A7000130A800F630A9000030AA00C430C3
:10002000AB000030AC009230AD000030AE006E305E
:10003000AF000030B0005230B1000030B2000A30E2
:10004000D8000A305807D9000A305907DA00831659
:1000500003130514851583160317881583120317D8
:1000600087178316031320308D0083120313023089
:10007000A400A201A301A501A6010830A100A001CE
:100080008316031388018312031383120313C00121
:1000900083160313FF30860083160317890183122A
:1000A00003130B308F00DC308E00831203131130EA
:1000B0009000831603130C14C0308B005F2865205A
:1000C0009F20CF20E120E3205F288312031306182E
:1000D000742886187B280619822886198928061A0A
:1000E0009028061B97289E280330DB002708D000A5
:1000F0002808D1009E280430DB002908D0002A08F7
:10010000D1009E280430DB002B08D0002C08D10041
:100110009E280430DB002D08D0002E08D1009E2838
:100120000630DB002F08D0003008D1009E280630B2
:10013000DB003108D0003208D1009E280800A00161
:10014000D4012508500203195416031C5415D2007B
:100150005419AD28B328D10308005118AB2050081A
:100160002502D200B328260851020319D416031C15
:10017000D415D300D419BD28C228D309D30AD20973
:10018000D20AC228541ACC20D419D4145419C92024
:100190000800D41AD4140800D41A54140800D50145
:1001A0005208D50055087F3C031CDA28D513D41813
:1001B000D517E028FF30D500D513D418D517E0287F
:1001C00008000000080083120313EB205608831276
:1001D00003138800080083120313D701D6015508C2
:1001E000D7007F30D70503192329D51BF9280E29FD
:1001F00025297F3057020319561403305702031C78
:10020000232958085702031C561559085702031C86
:10021000D6145A085702031C561425297F3057025A
:100220000319561703305702031C23295808570295
:10023000031C561659085702031CD6165A085702B3
:10024000031C56172529D61525290800C200030EC0
:10025000C101C100831203130C1C622937218312D0
:1002600003130C10410E8300C20E420E09008312CC
:1002700003130B308F00DC308E0083120313A10BAD
:100280000800831203132208A500A2012308A60078
:10029000A3010830A100080083120313A20AA20AD6
:1002A000031D0800A30AA201A20AA20A0800C00BAB
:1002B0005729FF30C0005C29DC0B5729C0015B08BF
:1002C000DC000800831203138D1E09008312031340
:1002D0004008003E031D7D2983120313FF30C00038
:1002E0005B08DC00572183120313A40B7D298312C2
:1002F00003130230A4004C217D29831203138D12B5
:020300000900F2
:02400E00F62F8B
:02401000FF3F70
:00000001FF
