:020000040000FA
:020000000528D1
:040002000034003492
:080008000029831203134A30A2
:10001000A7000130A800F630A9000030AA00C430C3
:10002000AB000030AC009230AD000030AE006E305E
:10003000AF000030B0005230B1000030B2000F30DD
:10004000D8000F305807D9000F305907DA0083164F
:1000500003130514851583160317881583120317D8
:1000600087178316031320308D0083120313023089
:10007000A400A201A301A501A6011030A100A001C6
:100080008316031388018312031383120313FF30B3
:10009000C00083160313FF308600831603178901FF
:1000A000831203130B308F00DC308E008312031396
:1000B00011309000831603130C14C0308B0060289D
:1000C00066209420BD20C320C5206028831203131E
:1000D0000618752886187A2806197F288619842814
:1000E000061A8928061B8E2893282708D00028087E
:1000F000D10093282908D0002A08D10093282B0882
:10010000D0002C08D10093282D08D0002E08D10053
:1001100093282F08D0003008D10093283108D00050
:100120003208D10093280800A001D401250850020C
:1001300003195416031C5415D2005419A028A228E0
:10014000D209D20A260851020319D416031CD41569
:10015000D300D419AC28B028D309D30AD209D20AC3
:10016000541ABA20D419D4145419B7200800D41A38
:10017000D4140800D41A54140800D5015208D5002C
:10018000D418D51708000000080083120313CD20EF
:100190005608831203138800080083120313D70143
:1001A000D6015508D7007F30D7050319FD28D51B88
:1001B000DB28EC28FF2803305702031CFD285808D1
:1001C0005702031C561559085702031CD6145A0827
:1001D0005702031C5614FF2803305702031CFD2846
:1001E00058085702031C561659085702031CD61606
:1001F0005A085702031C5617FF28D615FF28080077
:10020000C200030EC101C100831203130C1C2E296E
:100210001121831203130C10410E8300C20E420EF3
:100220000900831203130B308F00DC308E00831221
:100230000313A10B0800831203132208A500A201D7
:100240002308A600A3011030A100080083120313A5
:10025000A20A031D0800A30AA201080083120313C7
:100260008D1E090083120313A40B3C298312031370
:100270000230A40026213C29831203138D120900A9
:02400E00F62F8B
:02401000FF3F70
:00000001FF
