:020000040000FA
:020000000528D1
:040002000034003492
:080008001629831203134A308C
:10001000A7000130A800F630A9000030AA00C430C3
:10002000AB000030AC009230AD000030AE006E305E
:10003000AF000030B0005230B1000030B2003230BA
:10004000D80032305807D90032305907DA00831609
:1000500003130514851583160317881583120317D8
:1000600087178316031320308D0083120313023089
:10007000A400A201A301A501A6011030A100A001C6
:100080008316031388018312031383120313C00121
:1000900083160313FF30860083160317890183122A
:1000A00003130B308F00DC308E00831203131130EA
:1000B0009000831603130C14C0308B005F2865205A
:1000C0009320BF20D120D3205F288312031306186A
:1000D00074288618792806197E2886198328061A16
:1000E0008828061B8D2892282708D0002808D100D0
:1000F00092282908D0002A08D10092282B08D00085
:100100002C08D10092282D08D0002E08D10092286A
:100110002F08D0003008D10092283108D0003208D2
:10012000D10092280800A001D4012508500203192B
:100130005416031C5415D20054199F28A428511892
:10014000A42850082502D200260851020319D4160B
:10015000031CD415D300D419AE28B228D309D30A6E
:10016000D209D20A541ABC20D419D4145419B92073
:100170000800D41AD4140800D41A54140800D50165
:100180005208D50055087F3C031CCA28D513D41843
:10019000D517D028FF30D500D513D418D517D028BF
:1001A00008000000080083120313DB2056088312A6
:1001B00003138800080083120313D701D6015508E2
:1001C000D7007F30D70503191329D51BE928FE284E
:1001D00015297F3057020319561403305702031CA8
:1001E000132958085702031C561559085702031CB7
:1001F000D6145A085702031C561415297F3057028B
:100200000319561703305702031C132958085702C5
:10021000031C561659085702031CD6165A085702D3
:10022000031C56171529D61515290800C200030E00
:10023000C101C100831203130C1C4829272183121A
:1002400003130C10410E8300C20E420E09008312EC
:1002500003130B308F00DC308E0083120313A10BCD
:100260000800831203132208A500A2012308A60098
:10027000A3011030A100080083120313A20A031D7A
:100280000800A30AA2010800C00B4429C00108000D
:10029000831203138D1E0900831203134008003ECE
:1002A000031D612983120313FF30C0004421831210
:1002B0000313A40B6129831203130230A4003C2111
:0A02C0006129831203138D12090057
:02400E00F62F8B
:02401000FF3F70
:00000001FF
