:020000040000FA
:020000000528D1
:040002000034003492
:08000800542883120313A20126
:10001000A3011030A100A0018316031386018801FB
:100020008312031386018801831603132030810095
:10003000831203138101831203130B308F00DC3012
:100040008E008312031311309000831603130C14D7
:10005000E0308B002B2883120313220886008312C2
:100060000313200888002B28831203130B308F0002
:10007000DC308E0083120313A10B0800A20183124F
:1000800003130108A2002308A000A3018101831229
:1000900003131030A100080083120313A30A831274
:1000A0000313003081000800831203130C1C5C282A
:1000B0003420831203130C100B1D09004C200B116C
:0200C000090035
:02400E00F62F8B
:02401000FF3F70
:00000001FF
