:020000040000FA
:020000000528D1
:040002000034003492
:080008009F28831203134A3004
:10001000A7000130A800F630A9000030AA00C430C3
:10002000AB000030AC009230AD000030AE006E305E
:10003000AF000030B0005230B1000030B1002708EE
:10004000D0002808D10083160313051485158316E4
:10005000031788158312031787178316031320309D
:100060008D00831203130230A400A201A301A50195
:10007000A6011030A100A001831603138601880198
:10008000831203138601880183120313FF30C0001B
:10009000831203130B308F00DC308E0083120313A6
:1000A00011309000831603130C14E0308B00582895
:1000B0008312031325088600831203132608880081
:1000C0005828831203130B308F00DC308E0083120C
:1000D0000313A10B0800831203132208A500A20139
:1000E0002308A600A3011030A10008008312031307
:1000F000A20A031D0800A30AA2010800912083128E
:1001000003138D1E090083120313A40B8D28831281
:1001100003130230A40076208D28831203138D125E
:10012000090083120313C00B9128FF30C0009828E8
:1001300083120313C00B9828FF30C00008008312FD
:0E01400003130C1C7E286120831203130C1085
:02400E00F62F8B
:02401000FF3F70
:00000001FF
