:020000040000FA
:020000000528D1
:040002000034003492
:080008001729831203134A308B
:10001000A7000130A800F630A9000030AA00C430C3
:10002000AB000030AC009230AD000030AE006E305E
:10003000AF000030B0005230B1000030B2001930D3
:10004000D80019305807D90019305907DA0083163B
:1000500003130514851583160317881583120317D8
:1000600087178316031320308D0083120313023089
:10007000A400A201A301A501A6011030A100A001C6
:100080008316031388018312031383120313FF30B3
:10009000C00083160313FF308600831603178901FF
:1000A000831203130B308F00DC308E008312031396
:1000B00011309000831603130C14C0308B0060289D
:1000C00066209420C020D220D420602883120313FD
:1000D0000618752886187A2806197F288619842814
:1000E000061A8928061B8E2893282708D00028087E
:1000F000D10093282908D0002A08D10093282B0882
:10010000D0002C08D10093282D08D0002E08D10053
:1001100093282F08D0003008D10093283108D00050
:100120003208D10093280800A001D401250850020C
:1001300003195416031C5415D2005419A028A528DD
:100140005118A52850082502D2002608510203198B
:10015000D416031CD415D300D419AF28B328D3095F
:10016000D30AD209D20A541ABD20D419D41454196E
:10017000BA200800D41AD4140800D41A5414080061
:10018000D5015208D50055087F3C031CCB28D51358
:10019000D418D517D128FF30D500D513D418D517CA
:1001A000D12808000000080083120313DC20560841
:1001B000831203138800080083120313D701D601AA
:1001C0005508D7007F30D70503191429D51BEA2815
:1001D000FF2816297F30570203195614033057029F
:1001E000031C142958085702031C561559085702B6
:1001F000031CD6145A085702031C561416297F30C4
:1002000057020319561703305702031C14295808C4
:100210005702031C561659085702031CD6165A08D3
:100220005702031C56171629D61516290800C200B6
:10023000030EC101C100831203130C1C45292821A0
:10024000831203130C10410E8300C20E420E0900EC
:10025000831203130B308F00DC308E0083120313E4
:10026000A10B0800831203132208A500A201230892
:10027000A600A3011030A100080083120313A20AF4
:10028000031D0800A30AA2010800831203138D1E98
:10029000090083120313A40B5329831203130230A2
:0E02A000A4003D215329831203138D1209007F
:02400E00F62F8B
:02401000FF3F70
:00000001FF
