:020000040000FA
:020000000528D1
:040002000034003492
:08000800EF28831203134A30B4
:10001000A7000130A800F630A9000030AA00C430C3
:10002000AB000030AC009230AD000030AE006E305E
:10003000AF000030B0005230B1000030B200831683
:1000400003130514851583160317881583120317E8
:1000500087178316031320308D0083120313023099
:10006000A400A201A301A501A6011030A100A001D6
:100070008316031386018801831203138601880106
:1000800083120313FF30C00083160313FF30870071
:10009000831203130B308F00DC308E0083120313A6
:1000A00011309000831603130C14E0308B00582895
:1000B0005E208C20B320B920BB2058288312031364
:1000C00007186D28871872280719772887197C2840
:1000D000071A8128071B86288B282708D0002808A4
:1000E000D1008B282908D0002A08D1008B282B08A2
:1000F000D0002C08D1008B282D08D0002E08D1006C
:100100008B282F08D0003008D1008B283108D00070
:100110003208D1008B280800A001D4012508500224
:1001200003195416031C5415D20054199928520867
:100130009B28D209D20A260851020319D416031C9F
:10014000D415D300D419A6285308A828D309D30A54
:10015000541AD41A5414D419D4145419B0200800C1
:10016000D41AD4140800D5015208D500D418D517D4
:1001700008000000080083120313550886000800D9
:10018000831203130B308F00DC308E0083120313B5
:10019000A10B0800831203132208A500A201230863
:1001A000A600A3011030A100080083120313A20AC5
:1001B000031D0800A30AA2010800831203138D1E69
:1001C000090083120313A40BEB28831203130230DC
:1001D000A400D520EB28831203138D120900C2005E
:1001E000030EC101C100831203130C1CDD28C020C3
:1001F000831203130C10410E8300C20E420E09003D
:02400E00F62F8B
:02401000FF3F70
:00000001FF
