:020000040000FA
:020000000528D1
:040002000034003492
:08000800C528831203134A30DE
:10001000A7000130A800F630A9000030AA00C430C3
:10002000AB000030AC009230AD000030AE006E305E
:10003000AF000030B0005230B1000030B1002708EE
:10004000D0002808D10083160313051485158316E4
:10005000031788158312031787178316031320309D
:100060008D00831203130230A400A201A301A50195
:10007000A6011030A100A001831603138601880198
:10008000831203138601880183120313FF30C0001B
:10009000831203130B308F00DC308E0083120313A6
:1000A00011309000831603130C14E0308B00582895
:1000B0005D205E2081208D205828080083120313C4
:1000C000D4012508500203195416031C5415D200FC
:1000D0005419D103260851020319D416031C7820A1
:1000E000D3005419D10A541A7E20D41A7B20080058
:1000F000D415D41408005419D4140800D41A541474
:100100000800D41884200800D309D2095208013EFF
:10011000D200031C0800D30A0800831203135208FC
:100120008600831203135308880008008312031308
:100130000B308F00DC308E0083120313A10B0800FC
:10014000831203132208A500A2012308A600A3011D
:100150001030A100080083120313A20A031D080037
:10016000A30AA2010800831203138D1E0900831243
:100170000313A40BC128831203130230A400AB2085
:10018000C128831203138D120900C200030EC1019E
:10019000C100831203130C1CB3289620831203138F
:0C01A0000C10410E8300C20E420E09003C
:02400E00F62F8B
:02401000FF3F70
:00000001FF
